:040000007FEF05F099
:100600000001000A006400E8031027202020474F63
:10061000414C204C494E45202020200020202044E1
:100620004554454354494F4E2020202000476F61D8
:100630006C203D20200025640000000E186E130E73
:10064000176E9CD02050250AD8B409D00FC0D9FF0E
:1006500010C0DAFF20C0DFFF0F4A102A8FD0156EBE
:10066000000E196E155011C0F6FF12C0F7FF114AA7
:10067000122A0800F5CF20F02050000AD8B489D003
:10068000640AD8B403D00D0AD8A478D017C0D9FF13
:1006900018C0DAFFDECF1BF0DDCF1CF0020E1726EC
:1006A000000E18221C50800AF36E800EF35C000EC0
:1006B000D8B41B5CD8B006D0030E19121B6C1C1EDC
:1006C000D8B01C2A156E010E206E15502050050A58
:1006D000D8B416D02050020D010EF324F66E060E8B
:1006E000F420F76E0900F5CF15F00900F5CF16F0EC
:1006F00015501B5C16501C58D8A002D0202AE6D7F3
:1007000019C015F0030E1516D8B408D00FC0D9FFC4
:1007100010C0DAFF2D0EDF6E0F4A102A20C01AF02B
:1007200029D01A50020D010EF324F66E060EF420A5
:10073000F76E0900F5CF03F00A00F5CF04F01BC0F7
:1007400001F01CC002F0EDEC04F001C009F002C0A1
:100750000AF0000E0C6E0A0E0B6E41EC05F009500B
:10076000300F206E0FC0D9FF10C0DAFF20C0DFFFAE
:100770000F4A102A1A061A28D8A4D3D711C0F6FF98
:1007800012C0F7FF114A122A0800F5CF20F02066A8
:1007900059D70FC0D9FF10C0DAFF000EDF6E12006C
:1007A000000E226E000E216E000E936E000E946EEF
:1007B000958E959C839C3DEC04F0800E79EC04F0C2
:1007C000000E026E140E016E64EC05F0060E0A6E49
:1007D0000B0E096E18EC05F0C00E79EC04F0000E5B
:1007E000026E140E016E64EC05F0060E0A6E1C0E0D
:1007F000096E18EC05F0000E026E140E016E64EC2A
:1008000005F0010E79EC04F0839C800E79EC04F085
:10081000000E026E140E016E64EC05F0060E0A6EF8
:100820002D0E096E18EC05F0000E106E250E0F6EE1
:10083000060E126E360E116E21C013F022C014F097
:100840001DEC03F0000E0A6E250E096E18EC05F083
:10085000000E026E0A0E016E64EC05F083BED4D762
:10086000214A222A838C000E026E320E016E64EC45
:1008700005F0010E79EC04F0C7D7000E936E949842
:10088000949A949C330E79EC04F0000E026E140ED0
:10089000016E64EC05F0320E79EC04F0000E026E8D
:1008A000140E016E64EC05F0280E79EC04F0000ED5
:1008B000026E140E016E64EC05F00E0E79EC04F07D
:1008C000000E026E140E016E64EC05F0060E79EC5B
:1008D00004F0000E026E140E016E64EC05F0010EC1
:1008E00079EC04F0000E026E140E016E64EC05F05B
:1008F0001200E8CF08F0829A8298000E026E140E61
:10090000016E64EC05F0828C000E026E140E016E16
:1009100064EC05F008C007F0073A0F0E07160F0E3B
:1009200007168150F00B0710816E829C000E026E3C
:10093000140E016E64EC05F0828C000E026E140E33
:10094000016E64EC05F008C007F00F0E0716815029
:10095000F00B0710816E829C000E026E140E016E69
:1009600064EC05F01200E8CF08F08288829A000E4D
:10097000026E140E016E64EC05F0828C000E026EA5
:10098000140E016E64EC05F008C007F0073A0F0E74
:1009900007160F0E07168150F00B0710816E829C10
:1009A000000E026E140E016E64EC05F0828C000ED7
:1009B000026E140E016E64EC05F008C007F00F0E15
:1009C00007168150F00B0710816E829C000E026E9C
:1009D000140E016E64EC05F01200000E076E000E9E
:1009E000066E04500310D8B41ED0056E010E086EBA
:1009F000055004D0D89003360436082A04AEFAD73E
:100A0000D890063607360350015C04500258D8A02F
:100A100005D00350015E0450025A0680D89004327B
:100A20000332082EEDD706C001F007C002F0120015
:100A300014D009C0F6FF0AC0F7FFF86A050EF76484
:100A400003D00800F55005D0F6CFE9FFF7CFEAFF55
:100A5000EF50B3EC04F0094A0A2A09C0F6FF0AC0B5
:100A6000F7FFF86A050EF76403D00800F55005D0CB
:100A7000F6CFE9FFF7CFEAFFEF500009D8B4120034
:100A8000D8D70C500B10D8B41AD00D6E010E0E6EC4
:100A90000D5004D0D8900B360C360E2A0CAEFAD777
:100AA0000B50095C0C500A58D8A004D00B50095EBA
:100AB0000C500A5AD8900C320B320E2EF1D709C0C6
:100AC00009F00AC00AF01200000E046E000E036E58
:100AD0000FD0000E066E000E056EBC0E055C020EF9
:100AE0000658D8B003D0054A062AF7D7034A042A85
:100AF0000150035C02500458D8B01200EAD700EE4F
:100B000023F0120EEE6AE806FDE1000EF86E000119
:040B1000D0EF03F02F
:020000040020DA
:08000000FFFFFFFFFFFFFFFF00
:020000040030CA
:0E000000FF021D1EFF8381FF0FC00FE00F40A7
:00000001FF
